:060000000A128A11122809
:10000800FE00030EF0000408F1000A08F200831253
:1000180003137F08F3000A168A11C92F0A128A15DA
:10002800572879108312031307080A128A113F27E9
:100038000A128A1175087404031D232824283428F9
:1000480083160313E901EA010130E1000030E20000
:10005800D101D201D701D801D501D60134283428DD
:1000680083120313051839283A282F2983160313F6
:1000780048084704031D412842287328630883124F
:100088000313B90039074F3E840083130008BA00F0
:10009800840A0008BB003B08803AFF0080307F02DA
:1000A800031D582801303A02031C5B285C28A82845
:1000B80083160313630883120313B90039074F3EED
:1000C8008400FF3083138007840F00080318000A98
:1000D800FF00FF307F0780008403A828A82801308C
:1000E8008316031347064804031D7B287C28A82889
:1000F800630883120313B90039074F3E8400831342
:100108000008BA00840A0008BB003B08803AFF00D8
:1001180083307F02031D9228E8303A02031895289D
:100128009628A82883160313630883120313B900BB
:1001380039074F3E8400013083138007840A03186F
:10014800800AA828A828A828423083120313A900E7
:100158009130AA0083160313630883120313B900AE
:100168003907453E840083130008AB00840A000861
:10017800AC00AA300A128A1557240A128A110A12E8
:100188008A1501200A128A110A3083120313A1006A
:100198009130A2000A128A152D200A128A117E3087
:1001A80083120313A1009030A2000A128A152D2091
:1001B8000A128A11AA3083120313A1000030A20088
:1001C8000A128A152D200A128A113E30831203134F
:1001D800A1009130A2000A128A152D200A128A1154
:1001E800423083120313A9009130AA008316031327
:1001F800630883120313B90039074F3E8400831341
:100208000008AB00840A0008AC00AA300A128A155C
:1002180057240A128A11AA3083120313A10000304E
:10022800A2000A128A152D200A128A113930831267
:100238000313A1009130A2000A128A152D200A1278
:100248008A11262983120313051C2B292C292629F8
:100258002F292F292F298316031356085504031D08
:10026800362939290A128A15462B3B293B290130A0
:1002780069066A040319412944290A128A15152FA7
:100288004529023069066A04031D4B294C29D12BE4
:100298000130C5000030C600D301D401D12BD12BC9
:1002A80045300A128A1542210A128A117508740407
:1002B80003195F29602982290A128A1501200A1266
:1002C8008A11BB3083120313A1009030A2000A12D6
:1002D8008A152D200A128A112030F4000130F50009
:1002E8000A128A150E200A128A1183160313E901CD
:1002F800EA010230E1000030E200DB2B0130831616
:10030800031345064604031D8A298B29A0290A12CE
:100318008A1501200A128A11163083120313A100CC
:100328009130A2000A128A152D200A128A1183160A
:100338000313C501C601A029791CA329A429D12B1F
:1003480079108312031307080A128A113F270A1229
:100358008A110B3074067504031DB329B429032BC5
:100368008316031354085304031DBB29BC29DE2933
:100378000A128A1501200A128A11F1308312031316
:10038800A1009030A2000A128A152D200A128A11A3
:100398002030F4000130F5000A128A150E200A12E6
:1003A8008A1183160313E901EA010230E1000030E3
:1003B800E200D12B5008F501F5074F08F401F407C6
:1003C800E830F6000330F7000A128A1584200A1272
:1003D8008A11750883160313BC01BC077408BB0196
:1003E800BB074E08F501F5074D08F401F407643022
:1003F800F6000030F7000A128A1584200A128A11C2
:10040800750883160313BE01BE077408BD01BD0736
:100418004C08F501F5074B08F401F4070A30F6001B
:100428000030F7000A128A1584200A128A1175080A
:1004380083160313C001C0077408BF01BF074A0829
:10044800C201C2074908C101C1073D083B07831221
:100458000313B900831603133E0803183E0A3C072A
:1004680083120313BA00831603133F08831203137E
:100478003907BB008316031340080318400A831288
:1004880003133A07BC0083160313410883120313AE
:100498003B0783160313C30042080318420A83125A
:1004A80003133C0783160313C400DD01DE015E0855
:1004B800803AFF0080307F02031D642A05305D0208
:1004C800031C672A682A6A2AAA2AAA2A83160313F7
:1004D8005D0883120313B9003907453E840083136E
:1004E8000008BA00840A0008BB00FF303B06031D61
:1004F8007F2AFF303A06031D822A832A942A83160C
:1005080003135D0883120313B9003907453E8400BD
:100518008316031343088000840A44088000AA2A2B
:10052800013083160313DD070318DE0A0030DE07E7
:100538005E08803AFF0080307F02031DA52A05303F
:100548005D02031CA82AA92A6A2AAA2A0A128A155D
:1005580001200A128A11203083120313A10091305E
:10056800A2000A128A152D200A128A112030F400DE
:100578000130F5000A128A150E200A128A11831614
:100588000313D901DA015A08803AFF0080307F024C
:10059800031DD02A04305902031CD32AD42AD62A90
:1005A800F92AF92A83160313590883120313B90089
:1005B8003907C93E840083138001840A8001013011
:1005C80083160313D9070318DA0A0030DA075A0822
:1005D800803AFF0080307F02031DF42A043059025C
:1005E800031CF72AF82AD62AF92A83160313E901E5
:1005F800EA010230E1000030E200D12BD12B831256
:10060800031307080A128A113F270A128A110A30AF
:1006180074067504031D112B122B512B831603131B
:10062800DB01DC015C08803AFF0080307F02031D9B
:100638001F2B04305B02031C222B232B252B482B5A
:10064800482B831603135B0883120313B900390779
:10065800C93E840083138001840A80010130831617
:100668000313DB070318DC0A0030DC075C08803A58
:10067800FF0080307F02031D432B04305B02031C04
:10068800462B472B252B482B83160313E901EA0138
:100698000230E1000030E200D12B83160313540826
:1006A800803AFF0080307F02031D5C2B0430530228
:1006B80003185F2B602BD12B8312031307080A1230
:1006C8008A15DA210A128A110A128A11E9270A12EE
:1006D8008A11043083160313DF000030E00060083D
:1006E800803AFF0080307F02031D7C2B01305F02BF
:1006F80003187F2B802B822BB62BB62B8316031364
:100708005F0883120313B9003907FE3EC93E84000F
:1007180083130008BA00840A0008BB008316031379
:100728005F0883120313BC003C07C93E84003A08E3
:100738008000840A3B088000FF3083160313DF071C
:100748000318E00AFF30E0076008803AFF008030B5
:100758007F02031DB12B01305F020318B42BB52BA8
:10076800822BB62B8312031307080A128A113F271C
:100778000A128A11750883160313CA01CA07740876
:10078800C901C9070130D3070318D40A0030D407B8
:10079800D12BD12BD12BD12BD12B02308316031384
:1007A80069066A040319D92BDA2B5429DB2B033089
:1007B80069066A04031DE12BE22BB82D0130E50020
:1007C8000030E600B82DB82D45300A128A15F920F8
:1007D8000A128A11750874040319F32BF42B162CCA
:1007E8000A128A1501200A128A11E43083120313AF
:1007F800A1009030A2000A128A152D200A128A112F
:100808002030F4000130F5000A128A150E200A1271
:100818008A1183160313E901EA010330E10000306D
:10082800E200C02D791C192C1A2CFC2C791083128B
:10083800031307080A128A113F270A128A110B307C
:1008480074067504031D292C2A2C462C83160313C1
:100858006808803AFF0080307F02031D352C053080
:1008680067020318382C392C462C013083160313E1
:10087800E7070318E80A0030E8070130E500003010
:10088800E600FC2C8312031307080A128A113F277B
:100898000A128A110A3074067504031D542C552C4B
:1008A800712C831603136808803AFF0080307F029A
:1008B800031D602C02306702031C632C642C712C0E
:1008C800FF3083160313E7070318E80AFF30E80729
:1008D8000130E5000030E600FC2C83120313070802
:1008E8000A128A113F270A128A1108307406750401
:1008F800031D7F2C802CDC2C8316031367088312BE
:100908000313B9003907FE3E453E840083130008EF
:10091800BA00840A0008BB00FF303B06031D962C72
:10092800FF303A060319992C9A2CDC2C83160313F2
:10093800670883120313B9003907FE3E453E840059
:10094800FF308000840AFF30800083160313670895
:1009580083120313B9003907FE3E4F3E840080011D
:10096800840A80010A128A1501200A128A11FE30AF
:1009780083120313A1009030A2000A128A152D20B9
:100988000A128A112030F4000130F5000A128A1583
:100998000E200A128A1183160313E901EA010330B3
:1009A800E1000030E2000130E7000030E800FC2CF4
:1009B8008312031307080A128A113F270A128A11A1
:1009C800083074067504031DEA2CEB2CFC2C8316E6
:1009D8000313E901EA010330E1000030E2000130CD
:1009E800E7000030E800FC2CFC2CFC2CFC2CFC2C38
:1009F80083160313660865040319032D042DB82D07
:100A08000A128A1501200A128A116F308312031301
:100A1800A1009030A2000A128A152D200A128A110C
:100A2800DC3083120313A1009030A2000A128A1549
:100A38002D200A128A1183160313670883120313E1
:100A4800B9003907FE3E453E840083130008BA000A
:100A5800840A0008BB00FF303B06031D352DFF301C
:100A68003A06031D382D392D432D3430A10091301D
:100A7800A2000A128A152D200A128A11752D4230F9
:100A880083120313A9009130AA0083160313670881
:100A980083120313B9003907FE3E453E84008313D1
:100AA8000008AB00840A0008AC00AA300A128A15B4
:100AB80057240A128A118A3083120313A100903036
:100AC800A2000A128A152D200A128A11AA3083124E
:100AD8000313A1000030A2000A128A152D200A1261
:100AE8008A113E3083120313A1009130A2000A122A
:100AF8008A152D200A128A11423083120313A90085
:100B08009130AA0083160313670883120313B900F0
:100B18003907FE3E4F3E840083130008AB00840A69
:100B28000008AC00AA300A128A1557240A128A1142
:100B3800AA3083120313A1000030A2000A128A15FA
:100B48002D200A128A11393083120313A100913023
:100B5800A2000A128A152D200A128A11831603137D
:100B6800E501E601B82DB82D033069066A040319BA
:100B7800BE2DBF2DE82BC02D043069066A04031D65
:100B8800C62DC72D302F0130E7000030E8000130B6
:100B9800E5000030E600302F302F45300A128A1564
:100BA800F9200A128A11750874040319DC2DDD2D49
:100BB800FB2D0A128A1501200A128A11E4308312C9
:100BC8000313A1009030A2000A128A152D200A12E0
:100BD8008A112030F4000130F5000A128A150E201F
:100BE8000A128A1183160313E901EA01372F791CC7
:100BF800FE2DFF2D742E79108312031307080A1295
:100C08008A113F270A128A110B3074067504031DD6
:100C18000E2E0F2E2B2E831603136808803AFF0022
:100C280080307F02031D1A2E0530670203181D2E1F
:100C38001E2E2B2E013083160313E7070318E80A2C
:100C48000030E8070130E5000030E600742E83121A
:100C5800031307080A128A113F270A128A110A3059
:100C680074067504031D392E3A2E562E8316031367
:100C78006808803AFF0080307F02031D452E02304D
:100C88006702031C482E492E562EFF308316031385
:100C9800E7070318E80AFF30E8070130E5000030ED
:100CA800E600742E8312031307080A128A113F27DD
:100CB8000A128A1175087404031D632E642E742E9B
:100CC80083160313E901EA010430E1000030E20071
:100CD8000130E7000030E800742E742E742E742E54
:100CE800831603136608650403197B2E7C2E302FA8
:100CF8000A128A1501200A128A119D3083120313E1
:100D0800A1009030A2000A128A152D200A128A1119
:100D1800DC3083120313A1009030A2000A128A1556
:100D28002D200A128A1183160313670883120313EE
:100D3800B9003907FE3E453E840083130008BA0017
:100D4800840A0008BB00FF303B06031DAD2EFF30B0
:100D58003A06031DB02EB12EBB2E3430A1009130BF
:100D6800A2000A128A152D200A128A11ED2E42308D
:100D780083120313A9009130AA008316031367088E
:100D880083120313B9003907FE3E453E84008313DE
:100D98000008AB00840A0008AC00AA300A128A15C1
:100DA80057240A128A118A3083120313A100903043
:100DB800A2000A128A152D200A128A11AA3083125B
:100DC8000313A1000030A2000A128A152D200A126E
:100DD8008A113E3083120313A1009130A2000A1237
:100DE8008A152D200A128A11423083120313A90092
:100DF8009130AA0083160313670883120313B900FE
:100E08003907FE3E4F3E840083130008AB00840A76
:100E18000008AC00AA300A128A1557240A128A114F
:100E2800AA3083120313A1000030A2000A128A1507
:100E38002D200A128A11393083120313A100913030
:100E4800A2000A128A152D200A128A11831603138A
:100E5800E501E601302F302F043069066A040319D2
:100E6800362F372FD12D0A128A15F22D372F372F0B
:100E78000A128A111228F60076080D3A031D452F2A
:100E8800462F4B2FF401F501E82FE82FE82FF6083D
:100E9800031D4F2F502F572F0130F4000030F5005D
:100EA800E82FE82FE82F7608013A031D5C2F5D2F05
:100EB800642F0230F4000030F500E82FE82FE82F07
:100EC8007608023A031D692F6A2F712F0330F40048
:100ED8000030F500E82FE82FE82F7608043A031DC4
:100EE800762F772F7E2F0430F4000030F500E82F9E
:100EF800E82FE82F7608053A031D832F842F8B2FC0
:100F08000530F4000030F500E82FE82FE82F7608C8
:100F1800063A031D902F912F982F0630F4000030C9
:100F2800F500E82FE82FE82F7608083A031D9D2FD3
:100F38009E2FA52F0730F4000030F500E82FE82F8A
:100F4800E82F7608093A031DAA2FAB2FB22F0830D5
:100F5800F4000030F500E82FE82FE82F76080A3A69
:100F6800031DB72FB82FBF2F0930F4000030F5004C
:100F7800E82FE82FE82F76080C3A031DC42FC52F59
:100F8800CC2F0A30F4000030F500E82FE82FE82FC6
:100F980076080E3A031DD12FD22FD92F0B30F4002B
:100FA8000030F500E82FE82FE82FF401F501E82FCD
:100FB800E82FE82FE82FE82FE82FE82FE82FE82F71
:100FC800E82FE82FE82FE82F080083120313A0006A
:100FD80086162008880086170130F4000030F500D6
:100FE8000A128A150E200A128A1183120313861315
:020FF8000800EF
:1010020000300A168A11B5270A128A1501300A160B
:101012008A11B5270A128A150800F701F8011D285E
:10102200F91C142815281D280130F7070318F80A9F
:101032000030F807F9101D287808803AF600750884
:10104200803A7602031D272874087702031C2A2897
:101052002B2811282C280800452883120313220864
:10106200FF00210884000A168A1100200A128A153C
:101072000A128A11E9270A128A1501308312031310
:10108200A1070318A20A4528831203132208FF00AE
:10109200210884000A168A1100200A128A150038D3
:1010A200031D542855282E2856280800F901D90175
:1010B200DA01DB01DC01DD01DE01DF01E001831683
:1010C2000313E901EA018317A130FD001730FE0086
:1010D2009130FF00903084000A168A11A6270A1266
:1010E2008A1583135930FD001730FE00E430FF00EB
:1010F2003D3084000A168A11A6270A128A15830136
:101102000A128A156C2D83120313A001A1018928EA
:10111200741C8C288D289528760883120313A00747
:101122000318A10A7708A10701300310F60DF70D85
:10113200FF3E031D962801300310F50CF40CFF3E10
:10114200031D9D2875087404031DA828A928892851
:10115200AA28831203132108F501F5072008F401D8
:10116200F407B32808008312031324082304031985
:10117200BB28BC28F128A801A80ACB2801300310FB
:10118200A30DA40DFF3E031DC0280130A7002708B0
:10119200A807CB28A41FCE28CF28BF28D128D12822
:1011A20024082602031DD72823082502031CDA2857
:1011B200DB28E2282308A5022408031CA603A602B2
:1011C200E22801300310A40CA30CFF3E031DE32808
:1011D2000130A802031DEE28EF28D128F128F128BA
:1011E2002608A401A4072508A301A307F8280800DC
:1011F200F600F701F8017808803AFF0080307F029C
:10120200031D052905307702031C082909290B292A
:101212003C293C29770883120313A0002007760794
:10122200A1002108840083130008A200840A000898
:10123200A300FF302306031D2029FF3022060319D5
:10124200232924292829F401F501412941290130C2
:10125200F7070318F80A0030F8077808803AFF0009
:1012620080307F02031D372905307702031C3A299B
:101272003B290B293C290130F4000030F5004129BB
:101282000800F600F701F8017808803AFF00803084
:101292007F02031D4E2905307702031C5129522972
:1012A200542985298529770883120313A000200772
:1012B2007607A1002108840083130008A200840A93
:1012C2000008A300FF302306031D6929FF30220610
:1012D200031D6C296D297129F401F5018A298A29D6
:1012E2000130F7070318F80A0030F8077808803A47
:1012F200FF0080307F02031D802905307702031C26
:1013020083298429542985290130F4000030F5000D
:101312008A29080083120313A001A101750874042D
:10132200031994299529D229A201A20AA4290130DC
:101332000310F40DF50DFF3E031D99290130F8004D
:101342007808A207A429F51FA729A8299829AA295C
:10135200AA2901300310A00DA10DFF3E031DAB29E8
:1013620075087702031DB72974087602031CBA298F
:10137200BB29C3297408F6027508031CF703F70298
:101382002014C32901300310F50CF40CFF3E031D99
:10139200C4290130A202031DCF29D029AA29D229AA
:1013A200D2292108F501F5072008F401F407D9290B
:1013B2000800F40074080D3A031DE029E129E5292B
:1013C2003030462A462A462AF408031DE929EA292A
:1013D200EE293130462A462A462A7408013A031D6C
:1013E200F329F429F8293230462A462A462A740873
:1013F200023A031DFD29FE29022A3330462A462AD3
:10140200462A7408043A031D072A082A0C2A343093
:10141200462A462A462A7408053A031D112A122A28
:10142200162A3530462A462A462A7408063A031DE9
:101432001B2A1C2A202A3630462A462A462A7408A3
:10144200083A031D252A262A2A2A3730462A462AFE
:10145200462A7408093A031D2F2A302A342A3830C2
:10146200462A462A462A74080A3A031D392A3A2A83
:10147200462A3930462A462A462A462A462A462AF1
:10148200462A462A462A462A462A08008316031373
:101492006708FF3EC70068080318013EFF3EC80008
:1014A200D701D8010130D5000030D600752A831249
:1014B200031307080A128A113F270A128A157508B0
:1014C2007404031D652A662A752A83160313E9012B
:1014D200EA01D101D201D701D801D501D601752A7D
:1014E200752A752A752A752A8316031366086504F8
:1014F20003197C2A7D2AB62A013067066804031D77
:10150200832A842A952A0A128A1501200A128A1528
:101512001C3083120313A1009030A2000A128A1514
:101522002D200A128A15B02A023083160313670689
:101532006804031D9D2A9E2AB02A0A128A150120D8
:101542000A128A153A3083120313A1009030A200C6
:101552000A128A152D200A128A15B02AB02A831679
:101562000313E501E601B62AB62A58085704031DFB
:10157200BB2ABE2A0A128A15E72BBF2A560855042F
:101582000319C42AC72A0A128A112F294230831248
:101592000313A9009130AA00831603136308831270
:1015A2000313B9003907453E840083130008AB00DA
:1015B200840A0008AC00AA300A128A1557240A12BB
:1015C2008A150A128A1501200A128A150A30831214
:1015D2000313A1009130A2000A128A152D200A12CB
:1015E2008A157E3083120313A1009030A2000A12E2
:1015F2008A152D200A128A15AA3083120313A1001C
:101602000030A2000A128A152D200A128A153E30D5
:1016120083120313A1009130A2000A128A152D2011
:101622000A128A15423083120313A9009130AA00CC
:1016320083160313630883120313B90039074F3E5D
:10164200840083130008AB00840A0008AC00AA30AF
:101652000A128A1557240A128A15AA308312031312
:10166200A1000030A2000A128A152D200A128A1542
:10167200393083120313A1009130A2000A128A1595
:101682002D200A128A15C42AC42A791C4B2B0A124D
:101692008A1115280A128A1134280A128A15012081
:1016A2000A128A15583083120313A1009030A20047
:1016B2000A128A152D200A128A15DB3083120313AF
:1016C200A1009030A2000A128A152D200A128A1552
:1016D20083160313670883120313B9003907FE3E0A
:1016E200453E840083130008BA00840A0008BB0048
:1016F200FF303B06031D7F2BFF303A06031D822B72
:10170200832B8D2B3430A1009130A2000A128A154E
:101712002D200A128A15C02B423083120313A9000E
:101722009130AA0083160313670883120313B900CA
:101732003907FE3E453E840083130008AB00840A4D
:101742000008AC00AA300A128A1557240A128A1518
:101752008A3083120313A1009030A2000A128A1564
:101762002D200A128A15AA3083120313A100003019
:10177200A2000A128A152D200A128A15C02B83167E
:101782000313E501E601C62BC62B83160313520889
:101792005104031DCD2BD02B0A128A15482FD12BB1
:1017A200580857040319D62BD92B0A128A15B62AC0
:1017B2000130E7000030E8000130E5000030E600CB
:1017C2000130E7000030E800D62BD62B791CEA2B3B
:1017D200ED2B0A128A15752A791083120313070852
:1017E2000A128A113F270A128A150B3074067504F1
:1017F200031DFC2BFD2B192C831603136808803A5A
:10180200FF0080307F02031D082C0230670203189C
:101812000B2C0C2C192C013083160313E707031829
:10182200E80A0030E8070130E5000030E600EA2B64
:101832008312031307080A128A113F270A128A1514
:101842000A3074067504031D272C282C442C831699
:1018520003136808803AFF0080307F02031D332C97
:1018620002306702031C362C372C442CFF308316BF
:101872000313E7070318E80AFF30E8070130E50021
:101882000030E600EA2B8312031307080A128A11BA
:101892003F270A128A15083074067504031D542C5A
:1018A2000A128A15472A0A128A15582A8312031322
:1018B200B7002B30AD002D08B0004B2D3808253A6B
:1018C2000319642C652C712C3808AD00370884008C
:1018D2002D08831380000130AD002D08B7074B2D72
:1018E200B101782C662D942C942C4B2D942C2A0823
:1018F200AE002908AD000130A9070318AA0A2E0874
:10190200FF002D0884000A168A1100200A128A1587
:10191200B800003A0319662D643A0319942C0D3A63
:101922000319942C4B2D3008840083130008B30054
:10193200840A0008B4000230AD002D08B007B41FBD
:10194200A32CA42CAE2C0330AD002D08B104B30996
:10195200B409B30A0319B40AAE2CB801B80A38089C
:10196200053A031DB52CB62CB82CE42CE42C38080F
:10197200AD002D07123E840090300318013EFF0097
:101982000A168A1100200A128A15AE000A168A1156
:1019920000200A128A15AF002F083402031DD32C2F
:1019A2002E0833020318D62CD72CD92CE42CE42C85
:1019B2000130AD002D08B8073808053A031DE22CA6
:1019C200E32CB82CE42C310803390319E92CEA2C56
:1019D200F62C2D30AD00370884002D0883138000CB
:1019E2000130AD002D08B707F62C3808AD002D08E0
:1019F200B2003F2D0A30A3000030A4003208AD002F
:101A02002D07123E840090300318013EFF000A1693
:101A12008A1100200A128A15F4000A168A1100207F
:101A22000A128A15F5003408F701F7073308F601A0
:101A3200F6070A128A158B210A128A157508831273
:101A42000313A601A6077408A501A5070A128A15A1
:101A5200B4200A128A15831203132308303EAE0003
:101A62002E08B8003808AD00370884002D0883130B
:101A720080000130AD002D08B7073F2DFF30AD00CB
:101A82002D08B2073208FF3A031D482D492DFB2CC1
:101A92004B2D4B2D2A08AE002908AD000130A907B5
:101AA2000318AA0A2E08FF002D0884000A168A11BC
:101AB20000200A128A15AF002F08B800B808031DCB
:101AC200632D642D5F2C662D662D370884008313E9
:101AD20080016B2D0800013083160313850001304D
:101AE20086000F30870088019F111F159F141F1059
:101AF200C43081008B100B160B118B168B178312BF
:101B0200031388018701860183160313A801A90123
:101B1200E501E6010130E1000030E2000130E700BA
:101B22000030E800D101D201D701D801D501D60198
:101B32000130C5000030C600D301D401E301E40145
:101B4200C701C801A03084003D3083120313B900DD
:101B52000408BA000830BB00390884008313000867
:101B6200BC00B90A3A0884003C088000BA0ABB0BE0
:101B7200AD2DAA3084009030B9000408BA001130AB
:101B8200BB003908840083170008BC00B90A3A0870
:101B9200840083133C088000BA0ABB0BC22DC930F3
:101BA20084005930B9000408BA000830BB00390873
:101BB200840083130008BC00B90A3A0884003C0878
:101BC2008000BA0ABB0BD82D06300A168A11B52737
:101BD2000A128A150C300A168A11B5270A128A15BA
:101BE200F22D831603136A086904031DF92DFC2DD7
:101BF2000A128A15F52E0130E5000030E600F92DB3
:101C0200F92D791C052E082E0A128A15B72E791085
:101C12008312031307080A128A113F270A128A1530
:101C22000B3074067504031D172E182E3A2E013040
:101C320083160313E1070318E20A0030E207620881
:101C4200803AFF0080307F02031D292E0530610299
:101C5200031C2C2E2D2E332E043083160313E10089
:101C62000030E200013083160313E5000030E60085
:101C7200052E8312031307080A128A113F270A123C
:101C82008A150A3074067504031D482E492E6B2EE0
:101C9200FF3083160313E1070318E20AFF30E2075D
:101CA2006208803AFF0080307F02031D5A2E013005
:101CB200610203185D2E5E2E642E0130831603131B
:101CC200E1000030E200013083160313E50000302A
:101CD200E600052E8312031307080A128A113F2712
:101CE2000A128A15083074067504031D792E7A2E9D
:101CF200052E9E2E9E2E013083160313E90000301E
:101D0200EA00E501E601052E0230E9000030EA00B2
:101D1200E501E601052E0330E9000030EA00E501A5
:101D2200E601052E0430E9000030EA00E501E60193
:101D3200052EE501E601052E052E83160313620822
:101D4200003A0319A52E9A2E6108013A03197C2E36
:101D5200033A0319852E013A03198C2E073A031907
:101D6200932E9A2E052E052EB72EB72E8316031309
:101D7200660865040319BE2EBF2EF52E0A128A15B7
:101D820001200A128A152A3083120313A10091300E
:101D9200A2000A128A152D200A128A15D730831240
:101DA2000313A1009030A2000A128A152D200A12F4
:101DB2008A1583160313610883120313B9003907C6
:101DC200FE3EA03E840083130008A100840A00089E
:101DD200A2000A128A152D200A128A1583160313ED
:101DE200E501E601F52EF52E6A0869040319FA2EBB
:101DF200FD2E0A128A15022EFE2E013069066A0491
:101E0200031D042F072F0A128A113B290130E70014
:101E12000030E8000130E5000030E6000130D1007A
:101E22000030D200042F042F45300A128A15F920FF
:101E32000A128A15750874040319202F232F0A1217
:101E42008A15C62B0A128A1501200A128A15E43055
:101E520083120313A1009030A2000A128A152D20CA
:101E62000A128A152030F4000130F5000A128A1590
:101E72000E200A128A1583160313E901EA010130C2
:101E8200E1000030E2000A128A114529202F791C54
:101E92004B2F4C2FF62F79108312031307080A12C7
:101EA2008A113F270A128A150B3074067504031D26
:101EB2005B2F5C2F782F831603136808803AFF008C
:101EC20080307F02031D672F0530670203186A2FD7
:101ED2006B2F782F013083160313E7070318E80AE4
:101EE2000030E8070130E5000030E600F62F8312EB
:101EF200031307080A128A113F270A128A150A30A9
:101F020074067504031D862F872FA32F83160313D0
:101F12006808803AFF0080307F02031D922F023052
:101F22006702031C952F962FA32FFF3083160313EE
:101F3200E7070318E80AFF30E8070130E500003040
:101F4200E600F62F8312031307080A128A113F27AD
:101F52000A128A1575087404031DB02FB12FB82F09
:101F620083160313E901EA01D101D201F62F83128C
:101F7200031307080A128A113F270A128A1508302A
:101F820074067504031DC62FC72FF62F831603137D
:101F9200670883120313B9003907FE3E453E8400E9
:101FA20083130008BA00840A0008BB00FF303B0616
:101FB200031DDD2FFF303A060319E02FE12FF62F24
:101FC200831603136708FF3EE30068080318013E07
:101FD200FF3EE400D101D2010130D7000030D80029
:101FE200F62FF62FF62FF62FF62F83160313660819
:101FF20065040319FF2F0A128A154E2B202FFF1B8F
:102002000A2883137F1883170008840A0319FF0A1A
:1020120008007F087F398A000408840A0319FF0A2E
:102022008200013400340A34003464340034E83469
:1020320003341034273443346F3475346E347434BB
:1020420020346434693472342E343A3420342034E7
:1020520020342034203420342034203420342034DE
:1020620044346534633472346534613473346534B2
:10207200003443346F3475346E3474342034643431
:10208200693472342E343A342034203420342034EB
:1020920020342034203420342034203449346E3427
:1020A20063347234653461347334653400344334D8
:1020B20068346F346F3473346534203449344434B3
:1020C200203474346F3420347434723461346334A1
:1020D2006B343A34003433343A3420345234653475
:1020E2006D346F3476346534203449347434653455
:1020F2006D342034493444340034203420342034C4
:10210200203420342034203420342034203420342D
:102112002034493444342034003432343A342034C4
:1021220041346434643420344934743465346D3455
:102132002034493444340034423472346F347734B6
:102142007334653420344934743465346D34203446
:1021520049344434003431343A34203454347234FF
:10216200613463346B342034533474346F346334E5
:102172006B3400344934443420346C34693473345D
:1021820074342034663475346C346C342134003445
:1021920034343A342034423472346F347734733402
:1021A20065342034493444347334003420342034C8
:1021B200203420342034203420342034203420347D
:1021C2002034203400344E346F3420344934743493
:1021D20065346D342034493444347334213400344A
:1021E20045346E34743472347934203465346D3449
:1021F2007034743479342134003449344434203412
:10220200723465346D346F34763465346434213419
:10221200003454347234613463346B3469346E3450
:1022220067342E342E342E34003441346434643412
:102232002034493444343A3420342034003449348C
:102242004434203461346434643465346434213475
:1022520000344D34613469346E3420344D34653485
:102262006E34753400344E346F346E346534003459
:102272002034733474346B34003420343A342034D0
:082282000034253464340034FB
:102F220020340034003400340034003400340034DF
:102F320000340034003400340034003400340034EF
:102F420000347E088A007F0882000A168A11A227AE
:102F52000A168A118000840A04087D0603190034C7
:102F6200FF0A0319FE0AA62F83120313A00086127A
:102F72002008880086170130F4000030F5000A129C
:102F82008A150E200A168A1183120313861308006B
:102F92008B138B1CCD2FCE2FD12F8B107914D82FC2
:102FA2000B1DD42FD52FD82F0B11F914D82F8B131B
:102FB2007308FF0072088A0071088400700E830093
:102FC200FE0E7E0E0900AC3490348E3490346C3494
:102FD2009034C9349034FF34FF34FF34FF34FF346B
:102FE200FF34FF34FF34FF34FF3400340034003444
:0E2FF200003400340034003400340034003465
:02400E0071FF40
:00000001FF
